:020000040000FA
:060000000A128A11EB2F29
:10000C00F1008312031308147108860088140D3054
:10001C00F000F00B0F2883120313881008008312D2
:10002C00031351088039D2005208DB005108D2006A
:10003C005207D3005308E200D01F25282628272872
:10004C006214620803192B282C283C28620A031D11
:10005C003028312839280030D1000030D000003051
:10006C00CF000030CE00D017D10144280030D10091
:10007C000030D0000030CF000030CE004D08803969
:10008C00D2005208DB064D08D2005207D3005308A9
:10009C00E300CC1F52285328542863146308031917
:1000AC00582859286928630A031D5D285E2866288C
:1000BC000030CD000030CC000030CB000030CA0046
:1000CC00CC17CD0171280030CD000030CC000030B1
:1000DC00CB000030CA004D084C044B044A04031DED
:1000EC007828792892280030D1000030D0000030D8
:1000FC00CF000030CE008030D0047F30D1045B08BC
:10010C00D2005208D1045108CD005008CC004F0841
:10011C00CB004E08CA00F1296208031D96289728C7
:10012C00A0280030CD000030CC000030CB000030D7
:10013C00CA00F1296208D200D3015308D500630824
:10014C005202D400031CD50354087F3EDC00550832
:10015C000318013E003EDD005108DA005008D900BA
:10016C004F08D8004E08D7000030D1000030D00026
:10017C000030CF000030CE000030E1000030E00055
:10018C000030DF000030DE00E3011629630803199C
:10019C00D028D128F1280130D2000310D70DD80D6A
:1001AC00D90DDA0DD20BD3280130D2000310CE0DAD
:1001BC00CF0DD00DD10DD20BDC28E11FE628E7289E
:1001CC00E8284E140130D2000310DE0DDF0DE00DD7
:1001DC00E10DD20BEA284D085A02031DFF284C08EA
:1001EC005902031DFF284B085802031DFF284A081B
:1001FC005702031C02290329122961174A08D70246
:10020C004B08031C4B0FD8024C08031C4C0FD90293
:10021C004D08031C4D0FDA020130D2005208E307DF
:10022C001A306302031C1B291C29CC285A085904B8
:10023C005804570403192329242943295E144329FC
:10024C000130D2000310CE0DCF0DD00DD10DD20B3D
:10025C002829E11F3229332934294E140130D200C8
:10026C000310DE0DDF0DE00DE10DD20B3629FF3052
:10027C00DC070318DD0AFF30DD07D01F46294729AC
:10028C002629E301E11F4B294C296829FF305E0523
:10029C00D200FF305F05D300FF306005D4007F3003
:1002AC006105D500550854045304520403195F2901
:1002BC0060296329E301E30A68294E1C6629672932
:1002CC0068296029630803196C296D299E2901305E
:1002DC00CE07003003180130CF070030031801306F
:1002EC00D007003003180130D107511C7E297F291B
:1002FC009E294E08D2004F08D3005008D400510854
:10030C00D5000130D600550DD50CD40CD30CD20C25
:10031C00D60B89295508D1005408D0005308CF00BA
:10032C005208CE000130DC070318DD0A0030DD076F
:10033C005D08803AFF0080307F02031DA729FF3043
:10034C005C02031CAA29AB29B929FF3083120313C1
:10035C00DC000030DD000030D1000030D000003077
:10036C00CF000030CE00831203135D08803AFF00EB
:10037C0080307F02031DC42901305C020318C72999
:10038C00C829D52983120313DC01DD010030D1000B
:10039C000030D0000030CF000030CE00DB018312E3
:1003AC0003135C08D2005208E200621CDE29DF292C
:1003BC00E129D017E5297F30D2005208D005620818
:1003CC00D2000310520CD3005308D1005B08D200AA
:1003DC005208D1048928080073088039831203134A
:1003EC00A0002008F8007308A0002007A100210835
:1003FC00FA00F21F022A032A042A7A147A08031933
:10040C00082A092A192A7A0A031D0D2A0E2A162AE5
:10041C000030F3000030F2000030F1000030F0004A
:10042C00F217F301212A0030F3000030F200003003
:10043C00F1000030F00077088039A0002008F900A6
:10044C007908780603192B2A2C2A2D2A7817770875
:10045C00A0002007A1002108F900F61F362A372A30
:10046C00382A7914790803193C2A3D2A4D2A790A2D
:10047C00031D412A422A4A2A0030F7000030F600B8
:10048C000030F5000030F400F617F701552A003063
:10049C00F7000030F6000030F5000030F4007A0868
:1004AC00790203185A2A5B2A9F2A781F5E2A5F2A30
:1004BC00632A8030A0002008F8067A08A0002008E3
:1004CC00FB007908A0002008FA007B08A000200897
:1004DC00F9007008A0002008FB007408A000200898
:1004EC00F0007B08A0002008F4007108A000200890
:1004FC00FB007508A0002008F1007B08A000200874
:10050C00F5007208A0002008FB007608A000200867
:10051C00F2007B08A0002008F6007308A000200859
:10052C00FB007708A0002008F3007B08A00020083F
:10053C00F700FB017908A000A1012108A3007A08AB
:10054C002002A200031CA3032308803AFF00803082
:10055C007F02031DB32A1A302202031CB62AB72AC3
:10056C00F82A7308720471047004031DBE2AC02A91
:10057C000130C12A003083120313A0002008FB00B5
:10058C000030F3000030F2000030F1000030F000D9
:10059C007908A0002008FA00FE2A7B1CD62AD72A4C
:1005AC00E22A7B0883120313A0000310200C0138ED
:1005BC00A1002108FB00E42A0310FB0C701CE72AA5
:1005CC00E82AE92AFB17013083120313A000730DEC
:1005DC00F30CF20CF10CF00CA00BED2A0130A00086
:1005EC002008FA0779087A02031CFD2AFE2AD32A6E
:1005FC00781B012B022B512B7A08031D062B072B82
:10060C00102B0030F3000030F2000030F10000300D
:10061C00F000892C7408F007750803110318013ECB
:10062C000319192BF107760803110318013E03195E
:10063C00202BF207770803110318013E0319272B0F
:10064C00F307731C2A2B2B2B092C7B1C2E2B2F2BEB
:10065C003A2B7B0883120313A0000310200C0138E3
:10066C00A1002108FB003C2B0310FB0C701C3F2B42
:10067C00402B412BFB17013083120313A000730D89
:10068C00F30CF20CF10CF00CA00B452B0130A0007C
:10069C002008FA07092C7308803AFF007708803A83
:1006AC007F02031D632B76087202031D632B7508F2
:1006BC007102031D632B740870020318662B672BE1
:1006CC00C12BFF3083120313A000FF30A100FF30B9
:1006DC00A200FF30A3007408A4007508A5007608DA
:1006EC00A6007708A7007008A4027108031C710FFC
:1006FC00802B812BA5027208031C720F862B872B73
:10070C00A6027308031C730F8C2B8D2BA7022408D5
:10071C00A00725080318250F942B952BA107260855
:10072C000318260F9A2B9B2BA20727080318270ABE
:10073C00A3072308F3002208F2002108F100200887
:10074C00F0008030A0002008F806FB09FB0A7B08AB
:10075C00031DB12BB22BCF2B0130F0070030031847
:10076C000130F107003003180130F2070030031894
:10077C000130F307CF2B7408F0027508031C750FBA
:10078C00F1027608031C760FF2027708031C770F30
:10079C00F3027308720471047004031DD62BD72B5B
:1007AC00052C7B08031DDB2BDC2B052C0030F30008
:1007BC000030F2000030F1000030F000892C0130E4
:1007CC0083120313A0000310F00DF10DF20DF30DC5
:1007DC00A00BE92BFB1FF32BF42BF52B70147B1CBC
:1007EC00F82BF92BFC2B0314FB0DFE2B0310FB0D2C
:1007FC007A080319022C032C052C0130FA02F21F83
:10080C00082C092CE52BF901FB1F0D2C0E2C1C2C94
:10081C007B087F390319132C142C172CF901F90AB6
:10082C001C2C701C1A2C1B2C1C2C142C7908031936
:10083C00202C212C572C0130F007003003180130EC
:10084C00F107003003180130F207003003180130B3
:10085C00F307731C322C332C572C700883120313A0
:10086C00A0007108A1007208A2007308A300013057
:10087C00A400230DA30CA20CA10CA00CA40B3F2CC8
:10088C002308F3002208F2002108F1002008F000F0
:10089C007A0A0319522C532C572C0130A000200833
:1008AC00FA077A0A03195B2C5C2C612C7A08031D5D
:1008BC00602C612C6F2C0030F3000030F200003003
:1008CC00F1000030F0007A08031D6D2C6E2C6F2C9B
:1008DC00F8017A1C722C732C752CF2177B2C7F3040
:1008EC0083120313A0002008F2057A088312031365
:1008FC00A0000310200CA1002108F300F81F872C86
:10090C00882C892CF31708008312031333088039C1
:10091C00B8003808BD003308B8003807B9003908EA
:10092C00C300B21F9A2C9B2C9C2C43144308031914
:10093C00A02CA12CB02C430A031DA52CA62CAE2C4C
:10094C000030B3000030B2000030B1000030B00015
:10095C00B217B82C0030B3000030B2000030B10038
:10096C000030B00037088039B8003808BD063708A9
:10097C00B8003807B9003908C200B61FC62CC72CFE
:10098C00C82C421442080319CC2CCD2CDC2C420A66
:10099C00031DD12CD22CDA2C0030B7000030B6005D
:1009AC000030B5000030B400B617E42C0030B700AE
:1009BC000030B6000030B5000030B4004208031916
:1009CC00E82CE92CEE2C4308031DED2CEE2CF72C17
:1009DC000030B3000030B2000030B1000030B00085
:1009EC00EA2F3008B8003808F00036080A128A15C9
:1009FC0082210A128A11710883120313C90070082C
:100A0C00C8004808B800B901BA01BB013B08C100D5
:100A1C003A08C0003908BF003808BE004908B800C1
:100A2C00B901BA01BB013B08C7003A08C600390836
:100A3C00C5003808C4003108B8003808F000350883
:100A4C000A128A1582210A128A1171088312031361
:100A5C00C9007008C8004808B800B901BA01BB0148
:100A6C003808BE07390803110318013E03193F2D3E
:100A7C00BF073A0803110318013E0319462DC0079E
:100A8C003B0803110318013E03194D2DC1074908FA
:100A9C00B800B901BA01BB013808C4073908031101
:100AAC000318013E03195B2DC5073A0803110318FF
:100ABC00013E0319622DC6073B0803110318013EC2
:100ACC000319692DC7073208B8003808F00034083C
:100ADC000A128A1582210A128A11710883120313D1
:100AEC00C9007008C8004808B800B901BA01BB01B8
:100AFC003808BE07390803110318013E0319872D66
:100B0C00BF073A0803110318013E03198E2DC007C5
:100B1C003B0803110318013E0319952DC107490821
:100B2C00B800B901BA01BB013808C4073908031170
:100B3C000318013E0319A32DC5073A080311031826
:100B4C00013E0319AA2DC6073B0803110318013EE9
:100B5C000319B12DC7070830B8000310BE0DBF0D27
:100B6C00C00DC10DB80BB32D3108B8003808F0001A
:100B7C0034080A128A1582210A128A11710883120A
:100B8C000313C9007008C8004808B8004908B90028
:100B9C00BA01BB013808BE07390803110318013E1E
:100BAC000319D92DBF073A0803110318013E031985
:100BBC00E02DC0073B0803110318013E0319E72D74
:100BCC00C1073008B8003808F00035080A128A1539
:100BDC0082210A128A11710883120313C90070084A
:100BEC00C8004808B8004908B900BA01BB01380868
:100BFC00BE07390803110318013E0319062EBF075F
:100C0C003A0803110318013E03190D2EC0073B08C7
:100C1C0003110318013E0319142EC1070830B80044
:100C2C000310BE0DBF0DC00DC10DB80B162E300834
:100C3C00B8003808F00034080A128A1582210A120A
:100C4C008A11710883120313C9007008C800480880
:100C5C00B8004908B900BA01BB013808BE07390809
:100C6C0003110318013E03193C2EBF073A08031168
:100C7C000318013E0319432EC0073B080311031848
:100C8C00013E03194A2EC1073108B8003808F0009C
:100C9C0036080A128A1582210A128A1171088312E7
:100CAC000313C9007008C8004808B8004908B90007
:100CBC00BA01BB013808C407390803110318013EF7
:100CCC000319692EC5073A0803110318013E0319CD
:100CDC00702EC6073B0803110318013E0319772E2B
:100CEC00C7073208B8003808F00035080A128A1510
:100CFC0082210A128A11710883120313C900700829
:100D0C00C8004808B8004908B900BA01BB01380846
:100D1C00C407390803110318013E0319962EC507A1
:100D2C003A0803110318013E03199D2EC6073B0810
:100D3C0003110318013E0319A42EC7073208B8008B
:100D4C003808F00036080A128A1582210A128A1114
:100D5C00710883120313C9007008C8004808B80052
:100D6C004908B900BA01BB0108300310B80DB90D20
:100D7C00BA0DBB0DFF3E031DBB2E3808C407390846
:100D8C0003110318013E0319CC2EC5073A080311B1
:100D9C000318013E0319D32EC6073B080311031891
:100DAC00013E0319DA2EC7073E08B8003F08B90008
:100DBC004008BA004108BB0018300310BB0CBA0C39
:100DCC00B90CB80CFF3E031DE32E3808C4073908D4
:100DDC0003110318013E0319F42EC5073A08031139
:100DEC000318013E0319FB2EC6073B080311031819
:100DFC00013E0319022FC7070830B8000310BE0DBF
:100E0C00BF0DC00DC10DB80B042F43084207B8002D
:100E1C00B901B90D3808823EC80039080318013EE3
:100E2C00FF3EC900362F0130B8000310C40DC50DAC
:100E3C00C60DC70DB80B1B2FC11F252F262F272F13
:100E4C0044140130B8000310BE0DBF0DC00DC10D10
:100E5C00B80B292FFF30C8070318C90AFF30C90780
:100E6C00C61F392F3A2F192FC201C11F3E2F3F2FFA
:100E7C005B2FFF303E05B800FF303F05B900FF3057
:100E8C004005BA007F304105BB003B083A043904E9
:100E9C0038040319522F532F562FC201C20A5B2F4D
:100EAC00441C592F5A2F5B2F532F420803195F2FC5
:100EBC00602F912F0130C407003003180130C50793
:100ECC00003003180130C607003003180130C70783
:100EDC00471C712F722F912F4408B8004508B90098
:100EEC004608BA004708BB000130BC003B0DBB0CE8
:100EFC00BA0CB90CB80CBC0B7C2F3B08C7003A08D9
:100F0C00C6003908C5003808C4000130C8070318EA
:100F1C00C90A0030C9074908803AFF0080307F02B7
:100F2C00031D9A2FFF304802031C9D2F9E2FA92FC3
:100F3C007F3083120313C7008030C6000030C50019
:100F4C000030C400DE2F831203134908803AFF00DF
:100F5C0080307F02031DB42F013048020318B72FD5
:100F6C00B82FC42F003083120313C7000030C60003
:100F7C000030C5000030C400BD01DE2F8312031306
:100F8C004808B8003808C300FF30C405FF30C50559
:100F9C007F30C6050030C705431CD52FD62FD72F61
:100FAC00C6174308B8000310380CB9003908C7003D
:100FBC003D08B8003808C7044708B3004608B2001B
:100FCC004508B1004408B000080083136830840061
:100FDC0070300A128A15DF200A128A11A0308400A0
:100FEC00B4300A128A15DF200A128A1183010A1200
:100FFC008A15492EFF1B0A2883137F1883170008B4
:10100C00840A0319FF0A080008308A000408840ABD
:10101C0082070034013400340A3400346434003460
:10102C00E834033410342734253464340034203449
:10103C0020340034533431340034533432340034DB
:06104C005334333400347C
:1011B00001300A128A1510210A128A1508006400EB
:1011C0008001840A0406031900340406E0280A1288
:1011D0008A1503210A128A158316031311140800B5
:1011E0000A128A1503210A128A1583160313111590
:1011F00008000A128A1503210A128A157008831240
:1012000003139300080083160313141908290929EE
:10121000032911081F39031D0E290F29032908006E
:10122000F200831203130810720886008814063037
:10123000F1003030F000F00B1B29F10B1B290000EE
:101240008312031388100800F5007503031D292974
:101250002A29322973087F3EF4007408831203138D
:10126000EF0039297308BF3EF4007408831203139A
:10127000EF006F080A128A1510210A128A15080059
:1012800083120313B4000B30AD002D08A000340806
:10129000AE00AF012E08A1002F08A20030300A12C4
:1012A0008A1561250A128A153030F2000030F300E9
:1012B0000A128A1583220A128A15080080308312C6
:1012C0000313AB062F08F3002E08F2002D08F100DF
:1012D0002C08F0002B08F7002A08F6002908F50072
:1012E0002808F4000A128A11F2210A128A157308DA
:1012F00083120313AB007208AA007108A9007008DA
:10130000A8000800F800F401F5017008F200F301EC
:101310007208F6007308F700781C8F299029962927
:101320007608F4070318F50A7708F507013003106B
:10133000F60DF70DFF3E031D97290310F80C7808F2
:10134000031DA329A4298C297508F1007408F00055
:1013500008000A128A1503210A128A15831603133C
:1013600091150A128A1503210A128A158312031392
:101370001308F200F3017208F4007308F5000A1272
:101380008A1503210A128A1570037104031DC929E5
:10139000CA29CE29831603139112D1298316031368
:1013A000911611167508F1007408F0000800283035
:1013B0008312031394008316031391018312031302
:1013C0002008A4002108A5002208A6002308A700E1
:1013D00002300310A40DA50DA60DA70DFF3E031DA1
:1013E000E9292708F3002608F2002508F10024085F
:1013F000F0000030F7003D30F6000930F500003015
:10140000F4000A128A15C7230A128A157008FF3ED3
:1014100083160313930094018715071608001430F0
:10142000F4007930F300F30B132AF40B132A182A73
:1014300030300A128A1510210A128A1530300A1229
:101440008A1510210A128A1530300A128A151021C5
:101450000A128A1538300A128A1510210A128A15C2
:1014600010300A128A1510210A128A1501300A1248
:101470008A1510210A128A1506300A128A151021BF
:101480000A128A150E300A128A1510210A128A15BC
:1014900008007808790403194E2A4F2A7E2AFD0194
:1014A000FD0A5D2A01300310F80DF90DFF3E031D02
:1014B000532A0130FC007C08FD07F91F602A612ACD
:1014C000522A79087B02031D672A78087A02031CD6
:1014D0006A2A6B2A712A7808FA027908031CFB032E
:1014E000FB0201300310F90CF80CFF3E031D722AB9
:1014F0000130FD02031D7D2A7E2A612A7B08F90046
:101500007A08F8000800F701F801A82A770872079E
:10151000F5007308F4000318F40AF71F902AF40387
:101520007408F600760883120313FF007508840020
:101530000A128A1500200A128A150A128A11062038
:101540000A128A150130F7070318F80A0030F80765
:1015500077087207F5007308F4000318F40AF71F00
:10156000B22AF4037408F600760883120313FF000E
:10157000750884000A128A1500200A128A15003A9A
:10158000031DC32AC42A862A0800F501F601700843
:1015900071040319CC2ACD2A042BF701F70ADB2AA0
:1015A00001300310F00DF10DFF3E031DD12A013073
:1015B000F4007408F707F11FDE2ADF2AD02A013071
:1015C0000310F50DF60DFF3E031DE02A71087302AE
:1015D000031DEC2A70087202031CEF2AF02AF72A76
:1015E0007008F2027108031CF303F3027514013052
:1015F0000310F10CF00CFF3E031DF82A0130F70236
:10160000031D032B042BDF2A7608F1007508F00078
:1016100008008316031788018901831603138601C6
:10162000880183120313860188010030A300013072
:10163000A2008630A100A030A0000A128A15D7218E
:101640000A128A150A128A150F220A128A150A121C
:101650008A15D8200A128A15F301F30A01300A12FA
:101660008A1524210A128A151130F2008030F30005
:101670000A128A1583220A128A150730831203136D
:10168000A8002808F30001300A128A1524210A1242
:101690008A151430F2008030F3000A128A15832272
:1016A0000A128A150D3083120313A8002808F300CC
:1016B00001300A128A1524210A128A151730F20005
:1016C0008030F3000A128A1583220A128A15080054
:1016D00083120313B8003608B7003708F30002304E
:1016E0000A128A1524210A128A1583120313380854
:1016F0000A128A1540210A128A158312031336082A
:10170000013EB7003708F30002300A128A1524217F
:101710000A128A152E300A128A1106200A128A1518
:10172000831203133608023EB7003708F300023075
:101730000A128A1524210A128A150A308312031309
:1017400035020318A42BA52BAB2B30300A128A11BB
:1017500006200A128A158312031335080A128A1505
:1017600040210A128A15831203133608043EB7007B
:101770003708F30002300A128A1524210A128A154A
:1017800056300A128A1106200A128A150800003003
:10179000FC000030FB000030FA000030F900730854
:1017A0007204710470040319D62BD72B242CFD016D
:1017B000FD0AE72B0130F8000310F00DF10DF20DDA
:1017C000F30DF80BDC2B0130F8007808FD07F31F50
:1017D000EA2BEB2BDA2B0130F8000310F90DFA0D90
:1017E000FB0DFC0DF80BED2B73087702031D022C8B
:1017F00072087602031D022C71087502031D022C6B
:1018000070087402031C052C062C152C7008F402B9
:101810007108031C710FF5027208031C720FF602A7
:101820007308031C730FF702791401300310F30CD3
:10183000F20CF10CF00CFF3E031D162C0130FD02E2
:10184000031D232C242CEB2B7C08F3007B08F200D7
:101850007A08F1007908F00008000310720D730D8A
:10186000F4007408FA007A08031D372C382C412C38
:101870000030F3000030F2000030F1000030F000E2
:10188000A62C7008F4007108F5007208F6007308C1
:10189000F7001F300310F70CF60CF50CF40CFF3EAC
:1018A000031D4A2C7408F8007808F900F217FF307D
:1018B000F005FF30F105FF30F2050030F3059630FA
:1018C000FA02FA1F642C652C7F2C7A08803A973E26
:1018D00003186B2C6C2C6D2C382C01300310F30C7E
:1018E000F20CF10CF00CFF3E031D6E2C0130F400E5
:1018F0007408FA07031D7D2C7E2C6D2C962C20304D
:101900007A02031C842C852C912C382C0130F40095
:101910000310F00DF10DF20DF30DF40B882C0130D6
:10192000FA027A08031D952C962C862C7908031947
:101930009A2C9B2CA62CF009F109F209F309F00A64
:101940000319F10A0319F20A0319F30A0800F8004F
:1019500078080319AC2CAD2CC12CF31FB02CB12C82
:10196000C12C7009FA007109FB007209FC007309AF
:10197000FD00FA0A0319FB0A0319FC0A0319FD0A00
:10198000C92C7308FD007208FC007108FB00700888
:10199000FA007308720471047004031DD02CD12C5A
:1019A000DA2C0030F3000030F2000030F10000309B
:1019B000F000602D9630F4007408F900EC2C013032
:1019C000F4007408F90701300310FD0CFC0CFB0C4B
:1019D000FA0CFF3E031DE42CFE307D05031DF12CA7
:1019E000F22CDF2C0E2D0130F4007408F9070130C1
:1019F000FA07003003180130FB07003003180130EC
:101A0000FC07003003180130FD0701300310FD0C06
:101A1000FC0CFB0CFA0CFF3E031D062DFF307D0570
:101A2000031D132D142DF32C202D0130F90201304C
:101A3000F4000310FA0DFB0DFC0DFD0DF40B192D38
:101A4000FC1B232D242D2A2D023079020318292D69
:101A50002A2D152D79182D2D2E2D362DFF30FA0516
:101A6000FF30FB057F30FC05FF30FD050310F90C4E
:101A70007908F400F501F601F70118300310F40DB0
:101A8000F50DF60DF70DFF3E031D3E2D7408FA040B
:101A90007508FB047608FC047708FD047808031930
:101AA000522D532D582DF31F562D572D582DFD1700
:101AB0007D08F3007C08F2007B08F1007A08F00052
:101AC000080083120313AB002130A3002308A600F3
:101AD000322E25302C0603196E2D6F2D7B2D2C08F0
:101AE000A3002B0884002308831380000130A30087
:101AF0002308AB07322EA7010130A007FF302007D3
:101B000084000A128A150A200A128A15AC00A30062
:101B1000A4012408003A03198E2D322E2308003A1E
:101B20000319442E643A0319992D0D3A0319992D7E
:101B3000322E2608840083130008A900840A0008B6
:101B4000AA000230A3002308A607AA1FA82DA92DCA
:101B5000B22D0330A3002308A704A909AA09A90AE2
:101B60000319AA0AAC01AC0A2C08A3002307013E02
:101B700084000A128A150A200A128A15A4000A1281
:101B80008A150A200A128A15A50025082A02031DB3
:101B9000CB2D240829020318CE2DCF2DD02DDA2DE0
:101BA0000130A3002308AC0705302C06031DD92DF6
:101BB000DA2DB42D270803390319DF2DE02DEB2D85
:101BC0002D30A3002B0884002308831380000130EC
:101BD000A3002308AB072C08A3002308A800292E84
:101BE0000A30F8000030F9002808A3002307013E5E
:101BF00084000A128A150A200A128A15F0000A12B5
:101C00008A150A200A128A15F1002A08F300290809
:101C1000F2000A128A15C5220A128A157108FB0001
:101C20007008FA000A128A1549220A128A157808E1
:101C3000303E83120313A4002408AC002C08A30038
:101C40002B0884002308831380000130A30023089D
:101C5000AB07FF30A3002308A807280A031D312E75
:101C6000322EF02D0130A007FF30200784000A1229
:101C70008A150A200A128A15A3002308AC002C0832
:101C8000031D432E442E692D2B08840083138001ED
:101C900008000A128A1509230A128A150A128A15DF
:101CA000E7200A128A155130F0000030F1000A12C4
:101CB0008A15F9200A128A150030F000F1000A1284
:101CC0008A15A9210A128A15700883120313E400E9
:101CD0006408EE000A128A15F0200A128A150D30E7
:101CE00083120313E500FB30E400E40B752EE50BD3
:101CF000752E0A128A15E7200A128A156130F00043
:101D00000030F1000A128A15F9200A128A150030F3
:101D1000F000F1000A128A15A9210A128A1570082A
:101D200083120313E4006408EB000A128A15F02002
:101D30000A128A150D3083120313E500FB30E4000C
:101D4000E40BA02EE50BA02E0A128A15E7200A123A
:101D50008A154130F0000030F1000A128A15F9208E
:101D60000A128A150030F000F1000A128A15A92122
:101D70000A128A15700883120313E4006408E8004D
:101D80000A128A15F0200A128A150D3083120313E5
:101D9000E500FB30E400E40BCB2EE50BCB2E43300B
:101DA00083120313CD007F30CC000030CB00003015
:101DB000CA004030B300A030B2000030B1000030A3
:101DC000B0006E08E400E501E601E7016708F300F2
:101DD0006608F2006508F1006408F00000300A129D
:101DE0008A15A7240A128A15730883120313B700F1
:101DF0007208B6007108B5007008B4000A128A11A2
:101E00008A240A128A15831203133308D100320878
:101E1000D0003108CF003008CE000A128A111520F8
:101E20000A128A15831203134D0883160313B30095
:101E3000831203134C0883160313B2008312031397
:101E40004B0883160313B100831203134A08831649
:101E50000313B0003308F3003208F2003108F10038
:101E60003008F0000A128A152D240A128A1570080B
:101E700083120313E4006408ED004230B300C8305D
:101E8000B2000030B1000030B0006D08E400E501A0
:101E9000E601E7016708F3006608F2006508F10053
:101EA0006408F00001300A128A15A7240A128A1564
:101EB000730883120313AB007208AA007108A9000B
:101EC0007008A80083160313330883120313AF00AE
:101ED00083160313320883120313AE008316031311
:101EE000310883120313AD008316031330088312E5
:101EF0000313AC000A128A155E210A128A15831296
:101F000003132B08B7002A08B6002908B5002808D3
:101F1000B4000A128A118A240A128A158312031342
:101F2000330883160313AF0083120313320883169A
:101F30000313AE0083120313310883160313AD009D
:101F400083120313300883160313AC002F08F30029
:101F50002E08F2002D08F1002C08F0000A128A1554
:101F60002D240A128A15700883120313E4006408F2
:101F7000EC006C08E4006408B500B601B60A6D0810
:101F80000A128A1568230A128A150730831203136E
:101F9000E4006408F30002300A128A1524210A12B0
:101FA0008A15831203136B080A128A1540210A123C
:101FB0008A1520300A128A1106200A128A150D305D
:101FC00083120313E4006408F30002300A128A1536
:101FD00024210A128A158312031368080A128A152B
:101FE00040210A128A150E30F2008030F3000A12E6
:101FF0008A1583220A128A154E2E0A128A11002887
:04400E00D4E0FFFFFC
:00000001FF
