:020000040000FA
:060000000A128A110C280F
:10000800FE00030EFA000A08FB000A128A119D2856
:100018000A128A110F28F001F101F201F301F4012B
:10002800F501F601F701F80183010A128A111C286B
:100038000A128A1118210A128A1183120313081549
:10004800061C272828282F287308031D2C282D284C
:100058002F28F301F30A9730710203183428352842
:100068003B2873087107FD007D08F1005F28061C16
:100078003E283F2858287303031D4328442858283E
:100088007508031D4828492858280F300506031D00
:100098004E284F285128850155280130FD007D083C
:1000A8008507F501F50A5F2806185B285C285F2894
:1000B800F101F301F501061F622863286A28720816
:1000C800031D672868286A28F201F20A973070022F
:1000D80003186F287028762872087007FD007D08BD
:1000E800F0002428061F79287A2891287203031D16
:1000F8007E287F2891287408031D83288428912846
:100108000508031D882889288C280F3085008E282B
:1001180001308502F401F40A2428061B9428952846
:100128009928F001F201F401242824280A128A11DE
:100138000C28831203138C1DA228A328F728141255
:10014800141BA728A828AC28941FAB28AC28B328D0
:100158001308F9007908F800141394131416831679
:100168000313941AB828B928D4281419BC28BD2810
:10017800D428831203131308F9007908F8008C11A6
:10018800141683160313141CCA28CB28C5288312F7
:100198000313130888005330F900F90BD128F42809
:1001A800941AD728D828F428141DDB28DC28F4282A
:1001B800831203131308F9007908F8008316031350
:1001C8001410831203130508930014165330F90012
:1001D800F90BEC28831603131418F328F428EE28D7
:1001E800831203138C117B088A007A0E8300FE0E9B
:1001F8007E0E0900FC007C0883160313930036303A
:100208008312031394008030831603139400013083
:100218009100871507168B170B17831203138C1180
:10022800831603138C1508008316031788018901A8
:100238008316031385014130860088018312031356
:1002480085018601880160300A128A11FE200A128F
:040258008A110800FF
:04400E00D4E0FFFFFC
:00000001FF
