:020000040000FA
:060000000A128A110C280F
:10000800FE00030EF1000A08F2000A128A111728EE
:100018000A128A110F28F601F701F801F901830184
:100028000A128A11F028831203138C1D1C281D281C
:1000380071281412141B212822282628941F2528E9
:1000480026282D281308F0007008F70014139413BD
:10005800141683160313941A322833284E281419B9
:10006800362837284E28831203131308F000700827
:10007800F7008C11141683160313141C4428452802
:100088003F2883120313130888005330F000F00B45
:100098004B286E28941A512852286E28141D55286A
:1000A80056286E28831203131308F0007008F7000F
:1000B800831603131410790883120313930014167C
:1000C8005330F000F00B66288316031314186D28BC
:1000D8006E286828831203138C119F1874287528BA
:1000E80080280A128A1102210A128A11F000700867
:1000F800F900831203130C1372088A00710E83002F
:10010800FE0E7E0E0900F5000B17831603130C175D
:10011800831203130C13831603139F139F121F12CA
:10012800831203131F14A4289F131F13BA289F13A5
:100138001F17BA289F171F13BA289F171F17BA2807
:100148007508F300F4017408003A0319AC28BA28BA
:100158007308003A03199828013A03199B28033AAF
:1001680003199E28013A0319A128BA289F148B174E
:100178000800F300730883160313930036308312C4
:100188000313940080308316031394000130910008
:10019800871507168B170B17831203138C118316F9
:1001A80003138C1508008316031788018901831629
:1001B8000313860188018312031386018801003026
:1001C8000A128A1187200A128A1140300A128A11EB
:1001D800BD200A128A1108000A128A11D7200A12B1
:1001E8008A11831203139F18FA28FB28FC289F14EE
:1001F80079088600F5280A128A110C28831203133D
:040208001E080800C4
:04400E00D4E0FFFFFC
:00000001FF
